{
  "contractName": "ColorBattle",
  "abi": [
    {
      "inputs": [],
      "payable": false,
      "stateMutability": "nonpayable",
      "type": "constructor"
    },
    {
      "anonymous": false,
      "inputs": [
        {
          "indexed": false,
          "name": "numGames",
          "type": "uint256"
        }
      ],
      "name": "Playing",
      "type": "event"
    },
    {
      "anonymous": false,
      "inputs": [
        {
          "indexed": false,
          "name": "numGames",
          "type": "uint256"
        }
      ],
      "name": "Revealing",
      "type": "event"
    },
    {
      "anonymous": false,
      "inputs": [
        {
          "indexed": false,
          "name": "numGames",
          "type": "uint256"
        },
        {
          "indexed": false,
          "name": "player",
          "type": "address"
        }
      ],
      "name": "FailedToReveal",
      "type": "event"
    },
    {
      "anonymous": false,
      "inputs": [
        {
          "indexed": false,
          "name": "player",
          "type": "address"
        },
        {
          "indexed": false,
          "name": "amount",
          "type": "uint256"
        }
      ],
      "name": "PlayerDeposited",
      "type": "event"
    },
    {
      "anonymous": false,
      "inputs": [
        {
          "indexed": false,
          "name": "player",
          "type": "address"
        }
      ],
      "name": "PlayerMoved",
      "type": "event"
    },
    {
      "anonymous": false,
      "inputs": [
        {
          "indexed": false,
          "name": "player",
          "type": "address"
        }
      ],
      "name": "PlayerRevealed",
      "type": "event"
    },
    {
      "anonymous": false,
      "inputs": [
        {
          "indexed": false,
          "name": "payee",
          "type": "address"
        },
        {
          "indexed": false,
          "name": "amount",
          "type": "uint256"
        }
      ],
      "name": "Withdrawn",
      "type": "event"
    },
    {
      "anonymous": false,
      "inputs": [
        {
          "indexed": false,
          "name": "message",
          "type": "bytes32"
        }
      ],
      "name": "LogBytes32",
      "type": "event"
    },
    {
      "anonymous": false,
      "inputs": [
        {
          "indexed": false,
          "name": "message",
          "type": "string"
        }
      ],
      "name": "LogString",
      "type": "event"
    },
    {
      "anonymous": false,
      "inputs": [
        {
          "indexed": false,
          "name": "message",
          "type": "address"
        }
      ],
      "name": "LogAddress",
      "type": "event"
    },
    {
      "anonymous": false,
      "inputs": [
        {
          "indexed": false,
          "name": "message",
          "type": "uint256"
        }
      ],
      "name": "LogUint",
      "type": "event"
    },
    {
      "anonymous": false,
      "inputs": [
        {
          "indexed": false,
          "name": "r",
          "type": "uint8"
        },
        {
          "indexed": false,
          "name": "g",
          "type": "uint8"
        },
        {
          "indexed": false,
          "name": "b",
          "type": "uint8"
        }
      ],
      "name": "LogProcessMove",
      "type": "event"
    },
    {
      "anonymous": false,
      "inputs": [
        {
          "indexed": false,
          "name": "numGames",
          "type": "uint256"
        },
        {
          "indexed": false,
          "name": "winningAmount",
          "type": "uint256"
        },
        {
          "indexed": false,
          "name": "winner",
          "type": "address"
        },
        {
          "indexed": false,
          "name": "winningMove",
          "type": "uint256"
        },
        {
          "indexed": false,
          "name": "winType",
          "type": "uint8"
        }
      ],
      "name": "Decided",
      "type": "event"
    },
    {
      "constant": false,
      "inputs": [],
      "name": "freeCredits",
      "outputs": [],
      "payable": false,
      "stateMutability": "nonpayable",
      "type": "function"
    },
    {
      "constant": true,
      "inputs": [],
      "name": "currentGameInfo",
      "outputs": [
        {
          "name": "_state",
          "type": "uint8"
        },
        {
          "name": "_numGames",
          "type": "uint256"
        }
      ],
      "payable": false,
      "stateMutability": "view",
      "type": "function"
    },
    {
      "constant": true,
      "inputs": [],
      "name": "getBalance",
      "outputs": [
        {
          "name": "_balance",
          "type": "uint256"
        }
      ],
      "payable": false,
      "stateMutability": "view",
      "type": "function"
    },
    {
      "constant": false,
      "inputs": [],
      "name": "revealGame",
      "outputs": [],
      "payable": false,
      "stateMutability": "nonpayable",
      "type": "function"
    },
    {
      "constant": false,
      "inputs": [],
      "name": "decideGame",
      "outputs": [],
      "payable": false,
      "stateMutability": "nonpayable",
      "type": "function"
    },
    {
      "constant": false,
      "inputs": [],
      "name": "deposit",
      "outputs": [],
      "payable": true,
      "stateMutability": "payable",
      "type": "function"
    },
    {
      "constant": false,
      "inputs": [
        {
          "name": "_blindedMove",
          "type": "bytes32"
        }
      ],
      "name": "commitMove",
      "outputs": [],
      "payable": false,
      "stateMutability": "nonpayable",
      "type": "function"
    },
    {
      "constant": false,
      "inputs": [
        {
          "name": "_salt",
          "type": "uint32"
        },
        {
          "name": "_revealedMove",
          "type": "uint24"
        },
        {
          "name": "_blindedMove",
          "type": "bytes32"
        }
      ],
      "name": "revealMove",
      "outputs": [],
      "payable": false,
      "stateMutability": "nonpayable",
      "type": "function"
    }
  ],
  "bytecode": "0x6080604052600080553480156200001557600080fd5b5033600460006101000a81548173ffffffffffffffffffffffffffffffffffffffff021916908373ffffffffffffffffffffffffffffffffffffffff1602179055506200007062000076640100000000026401000000009004565b620002e3565b620000806200027b565b61010060405190810160405280600060028111156200009b57fe5b81526020016000815260200160008152602001600073ffffffffffffffffffffffffffffffffffffffff16815260200160008152602001600081526020016000815260200160008152509050600080815480929190600101919050555060005463ffffffff166000541415156200017a576040517f08c379a000000000000000000000000000000000000000000000000000000000815260040180806020018281038252600e8152602001807f4e6f206d6f72652067616d65732100000000000000000000000000000000000081525060200191505060405180910390fd5b80600160008054815260200190815260200160002060008201518160000160006101000a81548160ff02191690836002811115620001b457fe5b0217905550602082015181600101556040820151816002015560608201518160030160006101000a81548173ffffffffffffffffffffffffffffffffffffffff021916908373ffffffffffffffffffffffffffffffffffffffff1602179055506080820151816004015560a0820151816005015560c0820151816006015560e082015181600701559050507fe4ff65e682dc0bfddfbbbf30befa717d19f08b7f3b021f990b3b1d734c090bf66000546040518082815260200191505060405180910390a150565b61010060405190810160405280600060028111156200029657fe5b81526020016000815260200160008152602001600073ffffffffffffffffffffffffffffffffffffffff168152602001600081526020016000815260200160008152602001600081525090565b6117dc80620002f36000396000f30060806040526004361061008e576000357c0100000000000000000000000000000000000000000000000000000000900463ffffffff16806312065fe01461009357806317ef188d146100be5780633c0310a2146100fe5780639123d88f14610115578063a9ea37b614610165578063b7cd3ef414610196578063cde2cd4f146101ad578063d0e30db0146101c4575b600080fd5b34801561009f57600080fd5b506100a86101ce565b6040518082815260200191505060405180910390f35b3480156100ca57600080fd5b506100d3610215565b604051808360028111156100e357fe5b60ff1681526020018281526020019250505060405180910390f35b34801561010a57600080fd5b5061011361024e565b005b34801561012157600080fd5b50610163600480360381019080803563ffffffff169060200190929190803562ffffff1690602001909291908035600019169060200190929190505050610374565b005b34801561017157600080fd5b506101946004803603810190808035600019169060200190929190505050610846565b005b3480156101a257600080fd5b506101ab610b38565b005b3480156101b957600080fd5b506101c2610f76565b005b6101cc611161565b005b6000600360003373ffffffffffffffffffffffffffffffffffffffff1673ffffffffffffffffffffffffffffffffffffffff16815260200190815260200160002054905090565b600080600160008054815260200190815260200160002060000160009054906101000a900460ff16915060005463ffffffff1690509091565b6000600360003373ffffffffffffffffffffffffffffffffffffffff1673ffffffffffffffffffffffffffffffffffffffff1681526020019081526020016000205414151561032b576040517f08c379a000000000000000000000000000000000000000000000000000000000815260040180806020018281038252602d8152602001807f596f752063616e206f6e6c79206765742066726565206372656469747320696681526020017f2062616c616e636520697320300000000000000000000000000000000000000081525060400191505060405180910390fd5b620186a0600360003373ffffffffffffffffffffffffffffffffffffffff1673ffffffffffffffffffffffffffffffffffffffff16815260200190815260200160002081905550565b60006001600281111561038357fe5b600160008054815260200190815260200160002060000160009054906101000a900460ff1660028111156103b357fe5b14151561044e576040517f08c379a00000000000000000000000000000000000000000000000000000000081526004018080602001828103825260378152602001807f596f752063616e206f6e6c792072657665616c2061206d6f7665207768696c6581526020017f207468652067616d652069732052657665616c696e672e00000000000000000081525060400191505060405180910390fd5b600160008054815260200190815260200160002060090160003373ffffffffffffffffffffffffffffffffffffffff1673ffffffffffffffffffffffffffffffffffffffff16815260200190815260200160002054905060008111151561051d576040517f08c379a000000000000000000000000000000000000000000000000000000000815260040180806020018281038252601e8152602001807f506c6179657220686173206e6f206d6f76657320746f2072657665616c2e000081525060200191505060405180910390fd5b81600019166001600080548152602001908152602001600020600801600083815260200190815260200160002060010154600019161415156105ed576040517f08c379a00000000000000000000000000000000000000000000000000000000081526004018080602001828103825260348152602001807f426c696e646564206d6f7665206973206e6f7420657175616c20746f20626c6981526020017f6e646564206d6f766520636f6d6d69747465642e00000000000000000000000081525060400191505060405180910390fd5b8262ffffff168418604051602001808263ffffffff1663ffffffff167c01000000000000000000000000000000000000000000000000000000000281526004019150506040516020818303038152906040526040518082805190602001908083835b602083101515610674578051825260208201915060208101905060208303925061064f565b6001836020036101000a038019825116818451168082178552505050505050905001915050604051809103902060001916600160008054815260200190815260200160002060080160008381526020019081526020016000206001015460001916141515610770576040517f08c379a000000000000000000000000000000000000000000000000000000000815260040180806020018281038252602a8152602001807f52657665616c6564206d6f766520646f6573206e6f74206d6174636820626c6981526020017f6e646564206d6f76652e0000000000000000000000000000000000000000000081525060400191505060405180910390fd5b826001600080548152602001908152602001600020600801600083815260200190815260200160002060020160006101000a81548162ffffff021916908362ffffff160217905550600180600080548152602001908152602001600020600201600082825401925050819055507f1ddaae84a5b0db17c31fa327b7fa255053d685807559c5ae8183603da07da3cc33604051808273ffffffffffffffffffffffffffffffffffffffff1673ffffffffffffffffffffffffffffffffffffffff16815260200191505060405180910390a150505050565b60006102fd600360003373ffffffffffffffffffffffffffffffffffffffff1673ffffffffffffffffffffffffffffffffffffffff1681526020019081526020016000205410151515610927576040517f08c379a00000000000000000000000000000000000000000000000000000000081526004018080602001828103825260378152602001807f506c61796572206d7573742068617665206174206c656173742037363520706f81526020017f696e7473206465706f736974656420746f20706c61792e00000000000000000081525060400191505060405180910390fd5b600160008054815260200190815260200160002090506000600281111561094a57fe5b8160000160009054906101000a900460ff16600281111561096757fe5b141515610a02576040517f08c379a00000000000000000000000000000000000000000000000000000000081526004018080602001828103825260348152602001807f596f752063616e206f6e6c79207375626d69742061206d6f7665207768656e2081526020017f7468652067616d6520697320506c6179696e672e00000000000000000000000081525060400191505060405180910390fd5b80600101600081548092919060010191905055506060604051908101604052803373ffffffffffffffffffffffffffffffffffffffff16815260200183600019168152602001600062ffffff168152508160080160008360010154815260200190815260200160002060008201518160000160006101000a81548173ffffffffffffffffffffffffffffffffffffffff021916908373ffffffffffffffffffffffffffffffffffffffff1602179055506020820151816001019060001916905560408201518160020160006101000a81548162ffffff021916908362ffffff16021790555090505080600101548160090160003373ffffffffffffffffffffffffffffffffffffffff1673ffffffffffffffffffffffffffffffffffffffff168152602001908152602001600020819055505050565b610b40611709565b610b48611709565b610b50611709565b600080600080610b5e611709565b600060016002811115610b6d57fe5b600160008054815260200190815260200160002060000160009054906101000a900460ff166002811115610b9d57fe5b148015610bc3575060018060008054815260200190815260200160002060060154014210155b1515610c37576040517f08c379a00000000000000000000000000000000000000000000000000000000081526004018080602001828103825260178152602001807f47616d65206973207374696c6c2052657665616c696e6700000000000000000081525060200191505060405180910390fd5b60018060008054815260200190815260200160002060020154111515610d11576040517f08c379a00000000000000000000000000000000000000000000000000000000081526004018080602001828103825260488152602001807f4174206c65617374203220506c61796572732073686f756c642072657665616c81526020017f207468656972206d6f76657320666f72207468652067616d6520746f2062652081526020017f446563696465642e00000000000000000000000000000000000000000000000081525060600191505060405180910390fd5b610d196111b0565b98509850985098509850985098508460ff168660ff16118015610d4257508360ff168560ff1611155b15610d535788915060009050610e72565b8360ff168560ff16118015610d6e57508560ff168460ff1611155b15610d7f5787915060019050610e71565b8560ff168460ff16118015610d9a57508460ff168660ff1611155b15610dab5786915060029050610e70565b8460ff168460ff16148015610dc3575060008660ff16115b15610dd45788915060039050610e6f565b8360ff168660ff16148015610dec575060008560ff16115b15610dfd5787915060049050610e6e565b8560ff168560ff16148015610e15575060008460ff16115b15610e265786915060059050610e6d565b6060604051908101604052803373ffffffffffffffffffffffffffffffffffffffff1681526020016000600102600019168152602001600062ffffff168152509150600690505b5b5b5b5b5b8260036000846000015173ffffffffffffffffffffffffffffffffffffffff1673ffffffffffffffffffffffffffffffffffffffff168152602001908152602001600020600082825401925050819055507fa4f786f5b3593246bf1f63bd4e494548f145b0724a0f71bf58cd9e9e02670f31600054848460000151856040015185604051808681526020018581526020018473ffffffffffffffffffffffffffffffffffffffff1673ffffffffffffffffffffffffffffffffffffffff1681526020018362ffffff168152602001826006811115610f4c57fe5b60ff1681526020019550505050505060405180910390a1610f6b6114da565b505050505050505050565b60006002811115610f8357fe5b600160008054815260200190815260200160002060000160009054906101000a900460ff166002811115610fb357fe5b148015610fd9575060018060008054815260200190815260200160002060050154014210155b151561104d576040517f08c379a00000000000000000000000000000000000000000000000000000000081526004018080602001828103825260158152602001807f47616d65206973207374696c6c20506c6179696e67000000000000000000000081525060200191505060405180910390fd5b60018060008054815260200190815260200160002060010154111515611127576040517f08c379a00000000000000000000000000000000000000000000000000000000081526004018080602001828103825260498152602001807f32206f72206d6f726520506c61796572732073686f756c6420636f6d6d69742081526020017f7468656972206d6f766573206265666f72652052657665616c696e672069732081526020017f706f737369626c652e000000000000000000000000000000000000000000000081525060600191505060405180910390fd5b60018060008054815260200190815260200160002060000160006101000a81548160ff0219169083600281111561115a57fe5b0217905550565b34600360003373ffffffffffffffffffffffffffffffffffffffff1673ffffffffffffffffffffffffffffffffffffffff16815260200190815260200160002060008282540192505081905550565b6111b8611709565b6111c0611709565b6111c8611709565b60008060008060008060006111db611709565b60008060006001600080548152602001908152602001600020965060009550600194505b8660010154851115156114ca57866008016000868152602001908152602001600020606060405190810160405290816000820160009054906101000a900473ffffffffffffffffffffffffffffffffffffffff1673ffffffffffffffffffffffffffffffffffffffff1673ffffffffffffffffffffffffffffffffffffffff1681526020016001820154600019166000191681526020016002820160009054906101000a900462ffffff1662ffffff1662ffffff168152505093506000846040015162ffffff1611156113aa576112d984604001516116da565b92509250925085151561130157829a50819950809850839d50839c50839b5060019550611341565b8a60ff168360ff16111561131657829a50839d505b8960ff168260ff16111561132b57819950839c505b8860ff168160ff16111561134057809850839b505b5b808284010160ff1660036000866000015173ffffffffffffffffffffffffffffffffffffffff1673ffffffffffffffffffffffffffffffffffffffff16815260200190815260200160002060008282540392505081905550808284010160ff16880197506114bd565b6102fd60036000866000015173ffffffffffffffffffffffffffffffffffffffff1673ffffffffffffffffffffffffffffffffffffffff168152602001908152602001600020600082825403925050819055506102fd880197507f6912af363137909af224a5df0e64ba1100acbfe017d3201161086f95423fafaa6000546001600080548152602001908152602001600020600801600088815260200190815260200160002060000160009054906101000a900473ffffffffffffffffffffffffffffffffffffffff16604051808381526020018273ffffffffffffffffffffffffffffffffffffffff1673ffffffffffffffffffffffffffffffffffffffff1681526020019250505060405180910390a15b84806001019550506111ff565b5050505050505090919293949596565b6114e2611749565b61010060405190810160405280600060028111156114fc57fe5b81526020016000815260200160008152602001600073ffffffffffffffffffffffffffffffffffffffff16815260200160008152602001600081526020016000815260200160008152509050600080815480929190600101919050555060005463ffffffff166000541415156115da576040517f08c379a000000000000000000000000000000000000000000000000000000000815260040180806020018281038252600e8152602001807f4e6f206d6f72652067616d65732100000000000000000000000000000000000081525060200191505060405180910390fd5b80600160008054815260200190815260200160002060008201518160000160006101000a81548160ff0219169083600281111561161357fe5b0217905550602082015181600101556040820151816002015560608201518160030160006101000a81548173ffffffffffffffffffffffffffffffffffffffff021916908373ffffffffffffffffffffffffffffffffffffffff1602179055506080820151816004015560a0820151816005015560c0820151816006015560e082015181600701559050507fe4ff65e682dc0bfddfbbbf30befa717d19f08b7f3b021f990b3b1d734c090bf66000546040518082815260200191505060405180910390a150565b600080600060108462ffffff169060020a9004925060088462ffffff169060020a900491508390509193909250565b606060405190810160405280600073ffffffffffffffffffffffffffffffffffffffff16815260200160008019168152602001600062ffffff1681525090565b610100604051908101604052806000600281111561176357fe5b81526020016000815260200160008152602001600073ffffffffffffffffffffffffffffffffffffffff1681526020016000815260200160008152602001600081526020016000815250905600a165627a7a72305820e9f408daea7015109a18831682d535c412c3b22ae091d60da7937b2422aa1aa20029",
  "source": "pragma solidity >=0.4.24 <0.6.0;\n\ncontract ColorBattle\n{\n    enum GameState { Playing, Revealing, Decided }\n    enum WinType {Red, Green, Blue, RedOverTie, GreenOverTie, BlueOverTie, AllTied}\n    \n    event Playing (\n        uint256 numGames\n    );\n    \n    event Revealing (\n        uint256 numGames\n    );\n    \n    event FailedToReveal (\n        uint256 numGames,\n        address player\n    );\n    \n    event PlayerDeposited (\n        address player,\n        uint256 amount\n    );\n    \n    event PlayerMoved (address player);\n    event PlayerRevealed (address player);\n    \n    event Withdrawn (address payee, uint256 amount);\n\n    event LogBytes32 (bytes32 message);\n    event LogString (string message);\n    event LogAddress (address message);\n    event LogUint (uint message);\n    event LogProcessMove (uint8 r, uint8 g, uint8 b);\n    \n    event Decided (\n        uint256 numGames, \n        uint256 winningAmount,\n        address winner, \n        uint256 winningMove,\n        WinType winType\n    );\n    \n    uint256 constant minimumDepositAmount = 255 + 255 + 255;  // 765\n    uint256 constant freeCreditsAmount = 100000;\n\n    uint256 constant minimumRevealTimeSeconds = 1 seconds;\n    uint256 constant minimumDecideTimeSeconds = 1 seconds;\n\n    uint256 private numGames = 0;\n\n    mapping (uint256 => Game) private games;\n    mapping (address => uint256) private leaderboard;\n    mapping (address => uint256) private deposits;\n\n    address private owner;\n    \n    struct Game {\n        GameState state;\n        uint256 numMoves;\n        uint256 numRevealedMoves;\n        address winner;\n        uint256 winningMove;\n        uint256 createTime;\n        uint256 revealTime;\n        uint256 decideTime;\n        mapping(uint256 => Move) moves;\n        mapping(address => uint256) players;\n    }\n\n    struct Move {\n        address player;\n        bytes32 blind;\n        uint24 revealed;\n    }\n    \n    constructor() public {\n        owner = msg.sender;\n        _create();\n    }\n    \n    // function withdraw()\n    //     public\n    // {\n    //     require(\n    //         msg.sender == owner,\n    //         \"Only owner can call this\"\n    //     );\n\n    //     uint256 payment = deposits[owner];\n\n    //     deposits[owner] = 0;\n\n    //     owner.transfer(payment);\n\n    //     emit Withdrawn(owner, payment);\n    // }\n\n    function freeCredits()\n        public\n    {\n        require(\n            deposits[msg.sender] == 0,\n            \"You can only get free credits if balance is 0\"\n        );\n\n        deposits[msg.sender] = freeCreditsAmount;\n    }\n\n    function currentGameInfo()\n        public\n        view\n        returns (GameState _state, uint256 _numGames)\n    {\n        _state = games[numGames].state;\n        _numGames = uint32(numGames);\n    }\n    \n    function getBalance()\n        public\n        view\n        returns (uint256 _balance)\n    {\n        _balance = deposits[msg.sender];\n    }\n\n    function revealGame()\n        public\n    {\n        require(\n            games[numGames].state == GameState.Playing\n            && now >= games[numGames].createTime + minimumRevealTimeSeconds,\n            \"Game is still Playing\"\n        );\n        \n        require(\n            games[numGames].numMoves > 1,\n            \"2 or more Players should commit their moves before Revealing is possible.\"\n        );\n\n        games[numGames].state = GameState.Revealing;\n    }\n    \n    function parseMoves()\n        private\n        returns(\n            Move maxRMove,\n            Move maxGMove,\n            Move maxBMove, \n            uint8 maxR,\n            uint8 maxG,\n            uint8 maxB, \n            uint256 winningAmount\n        )\n    {\n        Game storage game = games[numGames];\n        bool firstMoveSeen = false;\n        for (uint256 i = 1; i <= game.numMoves; i++) {\n\n            Move memory move = game.moves[i];\n           \n            if(move.revealed > 0){\n                // Unpack the RGB values from the move\n                (uint8 r, uint8 g, uint8 b) = unpackRevealedMove(move.revealed);\n            \n                if(!firstMoveSeen){\n                    maxR = r;\n                    maxG = g;\n                    maxB = b;\n                    maxRMove = move;\n                    maxGMove = move;\n                    maxBMove = move;\n                    firstMoveSeen = true;\n                }else{\n                    if(r > maxR){\n                        maxR = r;\n                        maxRMove = move;\n                    }\n                    if(g > maxG){\n                        maxG = g;\n                        maxGMove = move;\n                    }\n                    if(b > maxB){\n                        maxB = b;\n                        maxBMove = move;\n                    }\n                }\n                // Deduct the player the amount bet. The winner will later get it back.\n                deposits[move.player] -= (r+g+b);\n                winningAmount += (r+g+b);\n            }else{\n                // Move not revealed : debit player and credit winningAmount\n                // with full deposit amount (765)\n                deposits[move.player] -= minimumDepositAmount;\n                \n                winningAmount += minimumDepositAmount;\n                \n                emit FailedToReveal(numGames, games[numGames].moves[i].player);\n            }\n        } // for moves\n    }\n\n    function decideGame()\n        public\n    {\n        require(\n            games[numGames].state == GameState.Revealing\n            && now >= games[numGames].revealTime + minimumDecideTimeSeconds,\n            \"Game is still Revealing\"\n        );\n        \n        require(\n            games[numGames].numRevealedMoves > 1,\n            \"At least 2 Players should reveal their moves for the game to be Decided.\"\n        );\n        \n        (\n            Move memory maxRMove,\n            Move memory maxGMove,\n            Move memory maxBMove, \n            uint8 maxR,\n            uint8 maxG,\n            uint8 maxB, \n            uint256 winningAmount\n        ) = parseMoves();\n\n        Move memory winningMove;\n        WinType winType;\n\n        if(maxR > maxG && maxG <= maxB){            // RED wins normally\n            winningMove = maxRMove;\n            winType = WinType.Red;\n        }else if(maxG > maxB && maxB <= maxR){      // GREEN wins normally\n            winningMove = maxGMove;\n            winType = WinType.Green;\n        }else if(maxB > maxR && maxR <= maxG){      // BLUE wins normally\n            winningMove = maxBMove;\n            winType = WinType.Blue;\n        }else if(maxB == maxG && maxR > 0){         // RED wins due to tie\n            winningMove = maxRMove;\n            winType = WinType.RedOverTie;\n        }else if(maxR == maxB && maxG > 0){         // GREEN wins due to tie\n            winningMove = maxGMove;\n            winType = WinType.GreenOverTie;\n        }else if(maxG == maxR && maxB > 0){         // BLUE wins due to tie\n            winningMove = maxBMove;\n            winType = WinType.BlueOverTie;\n        }else{                                      // All 0, or tie with 0 as third.\n            winningMove = Move(msg.sender, 0, 0);\n            winType = WinType.AllTied;\n        }\n        \n        // Pay out the winner (losers were already deducted from)\n        deposits[winningMove.player] += winningAmount;\n        \n        // Emit the winner\n        emit Decided (numGames, winningAmount, winningMove.player, winningMove.revealed, winType);\n        \n        // Immediately create a new game.\n        _create();\n    }\n    \n    function unpackRevealedMove(uint24 packed)\n        private\n        pure\n        returns (uint8 r, uint8 g, uint8 b)\n    {\n        r = uint8(packed >> 16);\n        g = uint8(packed >> 8);\n        b = uint8(packed);\n    }\n    \n    function _create()\n        private\n    {\n        Game memory _game = Game({\n            state: GameState.Playing,\n            numMoves: 0,\n            numRevealedMoves: 0,\n            winner: 0,\n            winningMove: 0,\n            createTime: 0,\n            revealTime: 0,\n            decideTime: 0\n        });\n        \n        numGames++;\n        \n        require(\n            numGames == uint256(uint32(numGames)),\n            \"No more games!\"\n        );\n        \n        games[numGames] = _game;\n        \n        emit Playing(numGames);\n    }\n    \n    function deposit()\n        public\n        payable\n    {\n        deposits[msg.sender] += msg.value;\n    }\n    \n    function commitMove(bytes32 _blindedMove)\n        public\n    {\n        require(\n            deposits[msg.sender] >= minimumDepositAmount,\n            \"Player must have at least 765 points deposited to play.\"\n        );\n        \n        Game storage game = games[numGames];\n        \n        require(\n            game.state == GameState.Playing,\n            \"You can only submit a move when the game is Playing.\"\n        );\n        \n        game.numMoves++;\n\n        game.moves[game.numMoves] = Move(msg.sender, _blindedMove, 0);\n        \n        game.players[msg.sender] = game.numMoves;\n\n    }\n    \n    function revealMove(uint32 _salt, uint24 _revealedMove, bytes32 _blindedMove)\n        public\n    {\n        require(\n            games[numGames].state == GameState.Revealing,\n            \"You can only reveal a move while the game is Revealing.\"\n        );\n        \n        uint256 moveID = games[numGames].players[msg.sender];\n                \n        require(\n            moveID > 0,\n            \"Player has no moves to reveal.\"\n        );\n\n        require(\n            games[numGames].moves[moveID].blind == _blindedMove,\n            \"Blinded move is not equal to blinded move committed.\"\n        );\n        \n        require(\n            games[numGames].moves[moveID].blind == keccak256(abi.encodePacked(_salt ^ _revealedMove)),\n            \"Revealed move does not match blinded move.\"\n        );\n\n        games[numGames].moves[moveID].revealed = _revealedMove;\n        \n        games[numGames].numRevealedMoves += 1;\n\n        emit PlayerRevealed(msg.sender);\n        \n    }\n}",
  "sourcePath": "/apps/colorbattle/contracts/ColorBattle.sol",
  "compiler": {
    "name": "solc",
    "version": "0.4.24+commit.e67f0147.Emscripten.clang"
  },
  "schemaVersion": "2.0.1",
  "updatedAt": "2018-10-13T02:55:59.426Z"
}